:10000000F92B00308A000408840A820700341E3469
:1000100014341034163409341E3409340D340634C3
:100020000D340934233409340934093409340934CA
:10003000093409340D341134143411344C3420345F
:1000400014341034163409340A3409340A340934A7
:100050000A340934363409341E34123415340E345B
:0E006000163409340A340934433400340034B1
:1003680064008001840A0406031900340406B529D0
:10037800F200F101721CC129C229C4297008F107D1
:100388000310F00D0310F20C7208031DCC29CD29BF
:10039800BE2971080800F1018316031305118312A1
:1003A800031305118316031385150330F000F00BB2
:1003B800DB29831203130618E229E329E529013012
:1003C800F100051AE829E929EB290230F100831622
:1003D8000313051585118312031385110330F000EB
:1003E800F00BF429831203130618FB29FC29FE29B4
:1003F8000330F100051A012A022A042A0430F10008
:1004080083160313851585190A2A0E2A83160313E2
:100418000515112A83160313051171080800F50143
:10042800F31F172A182A1F2AF209F309F20A0319D7
:10043800F30A0130F500F11F222A232A282AF0099D
:10044800F109F00A0319F10A7008710403192D2A39
:100458002E2A5B2A0130F4003A2A01300310F00DED
:10046800F10DFF3E031D322A0130F407F11F3D2A2A
:100478003E2A312A71087302031D442A7008720249
:10048800031C472A482A4E2A7008F2027108031CE6
:10049800F303F30201300310F10CF00CFF3E031DCF
:1004A8004F2A0130F402031D5A2A5B2A3E2A750896
:1004B80003195F2A602A652AF209F309F20A031967
:1004C800F30A7308F1007208F0000800073083127D
:1004D80003139F0001308316031386001030850034
:1004E8000F3083120313860085010030AB00003003
:1004F800AA000030A9000030A8000030A700003092
:10050800A6000030A5000030A4000030A300003091
:10051800A2000030A1000030A000B101AD010D30F3
:10052800F700FB30F600F60B972AF70B972A9C2A60
:10053800013083120313AD072D18A32AA42AED2B2B
:10054800CF2183120313AE002E080319AC2AAD2A5B
:10055800ED2B2E0840060319B22AB32AED2B0E30D4
:100568008604F92A0130C1008610B10106080F3946
:1005780090388600072B0230C1000611AF01B00188
:10058800831203132F08283E8400831380012F0849
:10059800243E840080012F08203E84000130800022
:1005A8000130AF070318B00A0030B0073008803AAE
:1005B800FF0080307F02031DE32A04302F02031C52
:1005C800E62AE72AC42AF030831203138604072B8D
:1005D8000330C1008611B10106080F393038860092
:1005E800072BC1010F308605072B2E08013A031986
:1005F800B62A033A0319BF2A013A0319EC2A073A23
:100608000319F52A072B2E08C000AD01ED2B463043
:100618002D02031C102B112B932AAD01310803194D
:10062800162B182B0130192B0030B1003108031993
:100638001E2B1F2B242B06080F3960388600932A9F
:1006480006080F3990388600932AB201B301831245
:1006580003133208283E84000C30F0003208BC2115
:10066800013E831300078400012083120313AC00AA
:100678002C08031D402B412B5F2B0C30F000003061
:10068800F1003208283E84000008013EF2000030E4
:1006980003180130F30013227008FF0083120313BC
:1006A8003208283E84007F08831380003208243EE5
:1006B80084008001BB2B3208243E8400013080076F
:1006C8002C080002031C692B6A2BBB2B3208243E22
:1006D800840080013208203E840000080319752B2D
:1006E800772B0130782B0030FF003208203E840041
:1006F8007F0880000C30F0000030F1003208283EFE
:1007080084000008013EF200003003180130F300B5
:1007180013227008FF00831203133208283E840056
:100728007F08831380003208203E840000080319E4
:100738009E2B9F2BAD2B0130F6003208043E013E64
:10074800A72B0310F60DFF3E031DA52B7608860484
:10075800BB2B0130F6003208043E013EB52B0310D6
:10076800F60DFF3E031DB32B7608FF3A86050130D0
:10077800B2070318B30A0030B3073308803AFF0002
:1007880080307F02031DCA2B04303202031CCD2B9C
:10079800CE2B2B2B932A46302D02031CD42BD52B82
:1007A800932AAD0131080319DA2BDC2B0130DD2B3C
:1007B8000030B10031080319E22BE32BE82B0608BF
:1007C8000F39C0388600932A06080F39303886005A
:1007D800932A4108013A03190B2B033A0319292BD1
:1007E800013A0319CF2B932A00288313343084004D
:0807F8004230B42183016A2A9A
:02400E00181F79
:00000001FF
